:100000000C9434000C9451000C9451000C94510049
:100010000C9451000C9451000C9451000C9451001C
:100020000C9451000C9451000C9451000C9451000C
:100030000C9451000C9451000C9451000C945100FC
:100040000C9451000C9451000C9451000C945100EC
:100050000C9451000C9451000C9451000C945100DC
:100060000C9451000C94510011241FBECFEFD8E026
:10007000DEBFCDBF11E0A0E0B1E0E0E2F0E102C000
:1000800005900D92A031B107D9F721E0A0E1B1E0D0
:1000900001C01D92A831B207E1F70E9497070C94A6
:1000A0000E080C9400008AB180668AB983EA84BD88
:1000B00083E085BD08958AB18F798AB914BC15BCD7
:1000C0000895219A82E8809380008AE180938100DC
:1000D0008FE39CE990938700809386000895219890
:1000E000109280001092810010928700109286007A
:1000F000089587BD089588BD0895CF93DF93C82FD5
:1001000018BC17BC2FEF86E791E02150804090404B
:10011000E1F700C000000E9461005A9AD0E045E873
:1001200057E0C49F9001C59F300DD49F300D11241E
:100130002E5A3C4FE8E8F0E0318320832FEF89E628
:1001400098E1215080409040E1F700C000005A98AB
:100150005B9A22E030E02C1B3D0B249FC001259FC1
:10016000900D349F900D11248E5A9C4F9183808363
:100170002FEF89E698E1215080409040E1F700C0E0
:1001800000005B980E946F000E9467028FE39CE969
:100190000197F1F700C00000DF91CF910895AF9271
:1001A000BF92CF92DF92EF92FF920F931F93CF9364
:1001B000DF93CDB7DEB764970FB6F894DEBF0FBEFE
:1001C000CDBF8C016B0181E00E94FE02FC01F0803A
:1001D0008F2D0E94EB01F7E7FF1226C0F801808106
:1001E0008C3C00F58D5C8083F801938180819E3684
:1001F00009F0C5C081838283F801818188BD828135
:1002000087BD64960FB6F894DEBF0FBECDBFDF91F9
:10021000CF911F910F91FF90EF90DF90CF90BF9003
:10022000AF9008958FEFDFCFF3E7FF1208C0F8011A
:100230008081843310F08353D6CF1082D5CFF5E779
:10024000FF120DC0F8018481811107C081E0848311
:10025000F80184810E947D00C7CF82E0F8CFF4E6E8
:10026000FF1208C0F8018481823010F08150EFCF76
:100270001482EECFFCE6FF1208C0F80183818237BA
:1002800059F48EE6F8018383AFCFF2E7FF1206C080
:10029000F80183818C36A9F3F382A6CFF1E7FF162C
:1002A00019F08FE6F81208C0F801108281E084830B
:1002B0008EE6838381E0CECFF7E6FF1208C08FEF92
:1002C000F801808314828EE6838380E0C3CFF8E652
:1002D000FF128ACF84E30E94EB01CE0109960E94AF
:1002E000440583E30E94EB01A601BE016F5E7F4FD0
:1002F000CE0109960E94BC0581E30E94EB018FE9C3
:100300009FE00197F1F700C00000FE0131966F01F8
:1003100088E011928A95E9F75601F12CE12CE989E0
:10032000FA89EE0DFF1D8081F50181935F010E9426
:10033000EB01FFEFEF1AFF0A84E0E816F10479F70A
:100340005E0195E0A90EB11CF12CE12CEB89FC8932
:10035000EE0DFF1D8081F50181935F010E94EB018D
:10036000FFEFEF1AFF0A84E0E816F10479F768E07E
:10037000C6010E94D10282E30E94EB0135CF923781
:1003800011F4118238CF1282818336CF8AB18C600A
:100390008AB90E94DF0181E00E947D000E94530023
:1003A0008FE39CE90197F1F700C000000E943E0333
:1003B0008FE39CE90197F1F700C0000008951092C7
:1003C000C50087E68093C40088E18093C10086E081
:1003D0008093C20008959091C00095FFFCCF809358
:1003E000C60008958091C00087FFFCCF8091C600B1
:1003F000089584B18D6284B98CB581658CBD2A9ACB
:10040000289808958EBD0DB407FEFDCF8EB50895D2
:10041000EF92FF920F931F93CF93DF937B01142FE3
:100420002A980E940202082FE701115028F08FEF4E
:100430000E9402028993F9CF2A9A802FDF91CF91EF
:100440001F910F91FF90EF900895EF92FF920F93FD
:100450001F93CF93DF937B01142F2A980E940202EF
:10046000082FE701115020F089910E940202FACF73
:100470002A9A802FDF91CF911F910F91FF90EF90DB
:1004800008952A988F710E9402028FEF0E94020243
:100490002A9A0895CF93DF93D62F2A988F7180627E
:1004A0000E940202C82F8D2F0E9402022A9A8C2FCE
:1004B000DF91CF9108958F710C9408028F71806243
:1004C0000C9425022A980E9402022A9A0895CF933A
:1004D000DF93CDB7DEB72A970FB6F894DEBF0FBE15
:1004E000CDBF0E94F9010E94DF0185E0E5E0F1E067
:1004F000DE01169601900D928A95E1F785E0EAE01B
:10050000F1E0DE01119601900D928A95E1F762E02B
:1005100081E00E944A0263E082E00E944A0263E0B6
:1005200083E00E944A0261E084E00E944A0263E0A4
:1005300085E00E944A0266E086E00E944A0245E0A9
:10054000BE016F5F7F4F8AE00E945E0245E0BE0100
:100550006F5F7F4F80E10E945E0245E0BE016A5FEF
:100560007F4F8BE00E945E0268E081E10E944A02B8
:1005700068E082E10E944A0263E08CE10E944A0244
:1005800065E08DE10E944A026FE080E00E944A022D
:100590002A960FB6F894DEBF0FBECDBFDF91CF9184
:1005A00008951F93CF93DF93EC01162F80E00E94F4
:1005B0004102682F6E7F80E00E944A028FE39FE134
:1005C0000197F1F700C0000081EE0E946202412F06
:1005D000BE0180EA0E942502289A8FE99FE00197D8
:1005E000F1F700C0000028988FEF0E946202682F88
:1005F00087E0DF91CF911F910C944A021F93CF9314
:10060000DF93182F80E00E944102682F616080E034
:100610000E944A028FE39FE10197F1F700C00000BA
:10062000289AC9EBDBE087E00E94410286FD19C0F1
:100630008FE39CE90197F1F700C00000219799F73B
:1006400087E68093100128988FEF0E946202682F3E
:1006500087E00E944A0280E191E0DF91CF911F91F3
:1006600008958FE99FE00197F1F700C00000412F46
:1006700060E171E081E60E940802E5CF88E48093A2
:10068000B8001092B900089584EA8093BC0080916C
:10069000BC0087FFFCCF089584E98093BC000895D7
:1006A0008093BB0084E88093BC008091BC0087FFEE
:1006B000FCCF089584EC8093BC008091BC0087FF40
:1006C000FCCF8091BB00089584E88093BC008091AA
:1006D000BC0087FFFCCF8091BB0008951F93CF9390
:1006E000DF93182FD62FC42F0E944403812F880F29
:1006F0000E9450038D2F0E9450038C2F0E945003A4
:1007000084E98093BC008FE19EE40197F1F700C07B
:100710000000DF91CF911F910895EF92FF920F9308
:100720001F93CF93DF93C82FF62EE42E152F022FA1
:100730000E9444038C2F880F0E945003CE2DD12F8E
:100740000C0F1D2F111DC017D10769F08F2D0E94AE
:10075000500389910E9450038FE19EE40197F1F7C5
:1007600000C00000F0CF84E98093BC00DF91CF91FE
:100770001F910F91FF90EF900895CF93DF93C82FB3
:10078000D62F0E9444038C2F880F0E9450038D2F78
:100790000E9450030E9444038C2F880F81600E94A6
:1007A00050030E94640394E99093BC00DF91CF91C1
:1007B0000895DF92EF92FF920F931F93CF93DF93F1
:1007C000182FF62EEA01022F0E944403812F880F72
:1007D0000E9450038F2D0E9450030E944403812FDA
:1007E000880F81600E945003D12C0150110BED2C19
:1007F000F12CE016F10644F4EC0EFD1E0E945A03A3
:10080000F7018083D394F3CFC00FD11F0E946403FC
:10081000888384E98093BC00DF91CF911F910F9171
:10082000FF90EF90DF900895CF93DF93EC0147E5C1
:1008300064EF86E70E946E034CE065EF86E70E9456
:100840006E0368E886E70E94BD0328813981820F24
:10085000932F911D9983888369E886E70E94BD03E1
:1008600090E0982F882728813981820F931F9983E0
:1008700088836AE886E70E94BD032A813B81820F54
:10088000932F911D9B838A836BE886E70E94BD03AB
:1008900090E0982F88272A813B81820F931F9B83AA
:1008A0008A836CE886E70E94BD032C813D81820F1C
:1008B000932F911D9D838C836DE886E70E94BD0375
:1008C00090E0982F88272C813D81820F931F9D8374
:1008D0008C836EE886E70E94BD032E813F81820FE4
:1008E000932F911D9F838E836FE886E70E94BD033F
:1008F00090E0982F88272E813F81820F931F9F833E
:100900008E8360E986E70E94BD0328853985820FC2
:10091000932F911D9987888761E986E70E94BD031F
:1009200090E0982F882728853985820F931F998713
:10093000888762E986E70E94BD032A853B85820F8E
:10094000932F911D9B878A8763E986E70E94BD03E9
:1009500090E0982F88272A853B85820F931F9B87DD
:100960008A8764E986E70E94BD032C853D85820F56
:10097000932F911D9D878C8765E986E70E94BD03B3
:1009800090E0982F88272C853D85820F931F9D87A7
:100990008C8766E986E70E94BD032E853F85820F1E
:1009A000932F911D9F878E8767E986E70E94BD037D
:1009B00090E0982F88272E853F85820F931F9F8771
:1009C0008E8768E986E70E94BD0328893989820FEE
:1009D000932F911D998B888B69E986E70E94BD034F
:1009E00090E0982F882728893989820F931F998B47
:1009F000888B6AE986E70E94BD032A893B89820FBA
:100A0000932F911D9B8B8A8B6BE986E70E94BD0318
:100A100090E0982F88272A893B89820F931F9B8B10
:100A20008A8B6CE986E70E94BD032C893D89820F81
:100A3000932F911D9D8B8C8B6DE986E70E94BD03E2
:100A400090E0982F88272C893D89820F931F9D8BDA
:100A50008C8B6EE986E70E94BD032E893F89820F49
:100A6000932F911D9F8B8E8B6FE986E70E94BD03AC
:100A700090E0982F88272E893F89820F931F9F8BA4
:100A80008E8BDF91CF9108950F931F93CF93DF93B8
:100A900000D000D000D0CDB7DEB78C0126E0AE018B
:100AA0004F5F5F4F67EF86E70E94D903898190E02F
:100AB000B0E0A0E02CE0880F991FAA1FBB1F2A9569
:100AC000D1F74A8150E070E060E034E0440F551FF8
:100AD000661F771F3A95D1F7840F951FA61FB71F82
:100AE0004B8150E070E060E0E4E0759567955795C4
:100AF0004795EA95D1F7840F951FA61FB71FF801F8
:100B000080839183A283B3838C8190E0B0E0A0E0E6
:100B10001CE0880F991FAA1FBB1F1A95D1F74D81A2
:100B200050E070E060E004E0440F551F661F771F3F
:100B30000A95D1F7840F951FA61FB71F4E8150E06D
:100B400070E060E024E075956795579547952A9584
:100B5000D1F7840F951FA61FB71F84839583A683A3
:100B6000B78326960FB6F894DEBF0FBECDBFDF91D8
:100B7000CF911F910F9108952F923F924F925F92C4
:100B80006F927F928F929F92AF92BF92CF92DF929D
:100B9000EF92FF920F931F93CF93DF9300D000D07B
:100BA00000D0CDB7DEB71C018B015E834D83FC0105
:100BB00084819581A681B781FA014081518170E0DD
:100BC00060E04C015D0124E0B594A794979487946C
:100BD0002A95D1F7841A950AA60AB70A33E0B59583
:100BE000A795979587953A95D1F7440F551F661F9E
:100BF000771F6C017D01C41AD50AE60AF70AA7011E
:100C00009601A281B3810E94F7076B017C013BE052
:100C1000F594E794D794C7943A95D1F7A501940138
:100C2000C501B4010E94BA079B01AC016CE0559567
:100C30004795379527956A95D1F7A481B5810E948C
:100C4000F707AEE09595879577956795AA95D1F7C3
:100C5000C60ED71EE81EF91EC08ED18EE28EF38E10
:100C6000A5E0B0E0A70196010E94EC0760587F4F15
:100C70008F4F9F4F272F382F492F552747FD5A95C4
:100C800029833A834B835C83F594E794D794C79484
:100C90003AEFD31AE108F108C701B60122E09595B1
:100CA0008795779567952A95D1F79B01AC010E94AE
:100CB000BA074B015C01AC019B016BE05595479570
:100CC000379527956A95D1F7A089B1890E94F707D2
:100CD0002B013C01A685B785A70196010E94F70765
:100CE000660F771F881F991F460E571E681E791EB4
:100CF000B2E07594679457944794BA95D1F7A2855A
:100D0000B385A50194018DE05595479537952795B5
:100D10008A95D1F70E94F7074B015C0193E0B594E7
:100D2000A794979487949A95D1F7A085B185A70148
:100D300096010E94F7079B01AC01559547953795A1
:100D40002795280D391D4A1D5B1D72E15595479564
:100D5000379527957A95D1F730584F4F5F4FA68139
:100D6000B7810E94EC076B017C01F10180819181C8
:100D7000A281B38120E030E040E150E0281B390B34
:100D80004A0B5B0BAD81BE811C966D917C91072E49
:100D9000000C880B990BCB0177276627460E571E50
:100DA000681E791EFCE07594679457944794FA95F1
:100DB000D1F72419350946095709A5E3BCE00E947B
:100DC000EC07A7019601AFE0559547953795279514
:100DD000AA95D1F797FDA2C0660F771F881F991FAC
:100DE0000E94CA0749015A01C501B40123E0969542
:100DF0008795779567952A95D1F79B01AC010E945D
:100E0000BA079B01AC016DE056954795379527953C
:100E10006A95D1F7ED81FE81A689B7890E94F7070F
:100E20006B017C017CE0F594E794D794C7947A95A4
:100E3000D1F7A5019401A2E05695479537952795DE
:100E4000AA95D1F7A489B5890E94F7079B01AC0147
:100E5000BDE05595479537952795BA95D1F72C0D57
:100E60003D1D4E1D5F1DC288D3880D2C000CEE0861
:100E7000FF082C0D3D1D4E1D5F1D84E055954795C7
:100E8000379527958A95D1F7820E931EA41EB51E1D
:100E900068E170E090E080E0D801ED91FC9111975D
:100EA000E80FF91F75016401062E04C0F694E7945B
:100EB000D794C7940A94D2F7C0821296ED91FC9110
:100EC000E80FF91FC980DA80EB80FC80062E04C091
:100ED000F594E794D794C7940A94D2F7C082019608
:100EE0006850710984309105B9F626960FB6F894CA
:100EF000DEBF0FBECDBFDF91CF911F910F91FF904D
:100F0000EF90DF90CF90BF90AF909F908F907F90A9
:100F10006F905F904F903F902F9008950E94CA0766
:100F200049015A01880C991CAA1CBB1C5DCFCF93A8
:100F3000DF93CDB7DEB7A1970FB6F894DEBF0FBE33
:100F4000CDBF0E94C60185E0E0E0F1E0DE015D96E4
:100F500001900D928A95E1F78E010F5F1F4F8CE192
:100F6000F80111928A95E9F7B801CE014D960E94D9
:100F7000CF00FACFDB018F939F930E94EC07BF91C4
:100F8000AF91A29F800D911DA39F900DB29F900DD8
:100F900011240895A1E21A2EAA1BBB1BFD010DC04E
:100FA000AA1FBB1FEE1FFF1FA217B307E407F50719
:100FB00020F0A21BB30BE40BF50B661F771F881FF5
:100FC000991F1A9469F760957095809590959B018B
:100FD000AC01BD01CF0108950E94FF07A59F900DB0
:100FE000B49F900DA49F800D911D11240895B7FF0B
:100FF0000C94EC070E94EC07821B930B0895A29FB0
:10100000B001B39FC001A39F700D811D1124911DDC
:10101000B29F700D811D1124911D0895F894FFCF8A
:101020000000006E01E7E7E7E7E7C2C2C2C2C20004
:00000001FF
