:100000000C9434000C9451000C9451000C94510049
:100010000C9451000C9451000C9451000C9451001C
:100020000C9451000C9451000C9451000C9451000C
:100030000C9451000C9451000C9451000C945100FC
:100040000C9451000C9451000C9451000C945100EC
:100050000C9451000C9451000C9451000C945100DC
:100060000C9451000C94510011241FBECFEFD8E026
:10007000DEBFCDBF11E0A0E0B1E0E2EFF3E002C0EF
:1000800005900D92AA30B107D9F721E0AAE0B1E0BE
:1000900001C01D92A231B207E1F70E94EE010C945B
:1000A000F7010C940000CF93DF931F92CDB7DEB71A
:1000B0000E94E701898361E0CE0101960E946701F9
:1000C00089810F90DF91CF9108950F931F93CF9364
:1000D000DF9388E00E94A001EC018C01085F1F4FB4
:1000E00089910E94E001C017D107D1F7DF91CF912C
:1000F0001F910F9108950E94D4012FEF89E698E196
:10010000215080409040E1F700C000000E94FD00B7
:100110008FE39CE90197F1F700C00000089584B1D6
:100120008D6284B98CB580658CBD2A9A2898089513
:100130008EBD0DB407FEFDCF8EB50895EF92FF92F0
:100140000F931F93CF93DF937B01142F2A980E9464
:100150009800082FE701115028F08FEF0E949800B7
:100160008993F9CF2A9A802FDF91CF911F910F9118
:10017000FF90EF900895EF92FF920F931F93CF930C
:10018000DF937B01142F2A980E949800082FE70123
:10019000115020F089910E949800FACF2A9A802F5E
:1001A000DF91CF911F910F91FF90EF9008952A98C2
:1001B0008F710E9498008FEF0E9498002A9A0895EC
:1001C000CF93DF93D62F2A988F7180620E94980078
:1001D000C82F8D2F0E9498002A9A8C2FDF91CF91E3
:1001E00008958F710C949E008F7180620C94BB00F7
:1001F0002A980E9498002A9A0895CF93DF93CDB74A
:10020000DEB72A970FB6F894DEBF0FBECDBF0E94AF
:100210008F000E94D40185E0E0E0F1E0DE01169657
:1002200001900D928A95E1F785E0E5E0F1E0DE01CD
:10023000119601900D928A95E1F762E081E00E94AB
:10024000E00063E082E00E94E00063E083E00E945F
:10025000E00061E084E00E94E00063E085E00E944D
:10026000E00066E086E00E94E00045E0BE016A5FD3
:100270007F4F8AE00E94F40045E0BE016A5F7F4F35
:1002800080E10E94F40045E0BE016F5F7F4F8BE08C
:100290000E94F40068E081E10E94E00068E082E1F1
:1002A0000E94E00063E08CE10E94E00065E08DE1E7
:1002B0000E94E0006FE080E00E94E0002A960FB606
:1002C000F894DEBF0FBECDBFDF91CF9108951F938D
:1002D000CF93DF93EC01162F80E00E94D700682FA8
:1002E0006E7F80E00E94E0008FEC97E00197F1F7CD
:1002F00000C0000081EE0E94F800412FBE0180EA9C
:100300000E94BB00289A8FE99FE00197F1F700C097
:100310000000289887E00E94D700805D0E94E001DD
:100320008FE39CE90197F1F700C000008FEF0E9476
:10033000F800682F87E0DF91CF911F910C94E000C7
:10034000CF93C82F80E00E94D700682F616080E0C3
:100350000E94E0008FE39FE10197F1F700C00000E9
:10036000289A87E00E94D70086FFFBCF8FE99FE0A5
:100370000197F1F700C0000028984C2F6AE071E067
:1003800081E60E949E008FEF0E94F800682F87E0B0
:100390000E94E0008FEC97E00197F1F700C00000A9
:1003A0008AE091E0CF9108951092C50087E680938E
:1003B000C40088E18093C10086E08093C200089564
:1003C0009091C00095FFFCCF8093C6000895809166
:1003D000C00087FFFCCF8091C60008950E947B007B
:1003E0000E9453008836E1F70E946500F9CFF89427
:0203F000FFCF3D
:0A03F200E7E7E7E7E7C2C2C2C2C2B4
:00000001FF
